:0400000034EF3EF0AB
:107C25002400AA0350010D010EF326000EF422F3E1
:107C3500500124D96EF4500220DA6E04C0DFFF1221
:107C45000001C0D9FF02C0DAFF03C0DFFF20EE0646
:107C5500F00150D9260250DA2204C0DEFF05C0DD4E
:107C6500FF1200250EF66E7C0EF76E000EF86E09FB
:107C750000F5CF21F00900F5CF22F00900F5CF235B
:107C8500F000016DEF3EF009C001F00AC002F000FE
:107C95000E046E0A0E036E98EC3EF001C00CF00265
:107CA500C00DF0000E0F6E000E0E6E0AD0410E0BC9
:107CB5006EEE0EE82EFED70B2EFCD700F00E4A0F07
:107CC5002A0C500E5C0D500F58D8A001D001D0EEF3
:107CD500D700D01200000E076E110E066E000E09B9
:107CE5006E190E086ECEEC3EF0AA0E836E00D00023
:107CF5000E026E110E016E106E010E036E10505DB8
:107D0500EC3FF0000E026E190E016E106E000E03B0
:107D15006E10505DEC3FF0000E0A6E320E096E4695
:107D2500EC3EF0E5D7E4D700EF00F0000E076E005B
:107D35000E066E04500310D8B401D001D027D0052B
:107D45006E010E086E055005D0D89003360436082E
:107D55002A00D004AE01D001D0F7D701D000D0D889
:107D650090063607360350015C04500258D8A0012E
:107D7500D001D006D00350015E0450025A0680009F
:107D8500D0D89004320332082EEAD700D006C001BD
:107D9500F007C002F0120008C001F009C002F00AA5
:107DA5006E010E036E0A500F0E056E830E046E23D0
:107DB500EC3EF008C001F009C002F00A6E000E03A7
:107DC5006E0A500B6E010E046E0B5014EC3EF0085B
:107DD500C001F009C002F00A6E010E036E0A500BD5
:107DE5006E020E046E0B5014EC3EF008C001F00953
:107DF500C002F00A6E020E036E0A500B6E040E04EA
:107E05006E0B5014EC3EF008C001F009C002F00AF8
:107E15006E030E036E0A500B6E080E046E0B5014A3
:107E2500EC3EF006C001F007C002F00A6E000E033A
:107E35006E0A500F0E056E830E046E23EC3EF0069F
:107E4500C001F007C002F00A6E000E036E0A500B67
:107E55006E800E046E0B5014EC3EF006C001F00768
:107E6500C002F00A6E010E036E0A500B6E400E043E
:107E75006E0B5014EC3EF006C001F007C002F00A8C
:107E85006E020E036E0A500B6E200E046E0B50141C
:107E9500EC3EF006C001F007C002F00A6E030E03C7
:107EA5006E0A500B6E100E046E0B5014EC3EF00073
:107EB5000E956E1200046E000E066E0450046E00E0
:107EC5000E076E0450030E076401D001D002D016D0
:107ED500D015D00750010D010EF326000EF422F344
:107EE500500124D96EF4500220DA6EDF50061207D5
:107EF5002A030E076401D001D0ECD700D0061E205E
:107F0500EE06F00150D9260250DA22DECF04F0DD6C
:107F1500CF05F004C0D9FF05C0DAFFDF5006163ED5
:107F2500D020EE05F00150D9260250DA22DF5004A8
:107F35006E030E045CD8B001D001D008D020EE0548
:107F4500F00150D9260250DA22DF2A30D020EE0582
:107F5500F00150D9260250DA22000EDF6E27D02616
:107F6500D020EE05F00150D9260250DA22DF50D894
:107F7500B401D001D008D020EE05F00150D9260279
:107F850050DA22DF0613D020EE05F00150D9260283
:107F950050DA22030EDF6E0AD009D008D003500054
:107FA5000AD8B4DED7010AD8B4BBD700D020EE0575
:107FB500F00150D9260250DA22DF50046E04500138
:107FC5000D010EF326000EF422F3500124D96EF4B0
:107FD500500220DA6EDF50061220EE06F00150D96D
:107FE500260250DA22DECF04F0DDCF05F004C0D939
:0C7FF500FF05C0DAFF06C0DFFF1200FF2E
:020000040020DA
:08000000FFFFFFFFFFFFFFFF00
:020000040030CA
:0E00000000051F1FFF8385FF0FC00FE00F409C
:00000001FF
